{
  "_format": "hh-sol-artifact-1",
  "contractName": "tokenizeRealestate",
  "sourceName": "contracts/tokenizerealestate.sol",
  "abi": [
    {
      "inputs": [
        {
          "internalType": "address",
          "name": "_token",
          "type": "address"
        }
      ],
      "stateMutability": "nonpayable",
      "type": "constructor"
    },
    {
      "anonymous": false,
      "inputs": [
        {
          "indexed": true,
          "internalType": "uint256",
          "name": "assetid",
          "type": "uint256"
        },
        {
          "indexed": true,
          "internalType": "address",
          "name": "subscriber",
          "type": "address"
        },
        {
          "indexed": false,
          "internalType": "uint256",
          "name": "fassetid",
          "type": "uint256"
        },
        {
          "indexed": false,
          "internalType": "uint256",
          "name": "rent",
          "type": "uint256"
        }
      ],
      "name": "Subscribe",
      "type": "event"
    },
    {
      "anonymous": false,
      "inputs": [
        {
          "indexed": true,
          "internalType": "uint256",
          "name": "assetid",
          "type": "uint256"
        },
        {
          "indexed": true,
          "internalType": "address",
          "name": "assetowner",
          "type": "address"
        },
        {
          "indexed": false,
          "internalType": "uint256",
          "name": "tokenid",
          "type": "uint256"
        },
        {
          "indexed": false,
          "internalType": "address",
          "name": "nft",
          "type": "address"
        }
      ],
      "name": "addasset",
      "type": "event"
    },
    {
      "anonymous": false,
      "inputs": [
        {
          "indexed": true,
          "internalType": "uint256",
          "name": "assetid",
          "type": "uint256"
        },
        {
          "indexed": true,
          "internalType": "address",
          "name": "assetowner",
          "type": "address"
        },
        {
          "indexed": false,
          "internalType": "uint256",
          "name": "tokenid",
          "type": "uint256"
        },
        {
          "indexed": false,
          "internalType": "address",
          "name": "nft",
          "type": "address"
        }
      ],
      "name": "addfasset",
      "type": "event"
    },
    {
      "anonymous": false,
      "inputs": [
        {
          "indexed": true,
          "internalType": "uint256",
          "name": "assetid",
          "type": "uint256"
        },
        {
          "indexed": true,
          "internalType": "address",
          "name": "buyer",
          "type": "address"
        },
        {
          "indexed": false,
          "internalType": "address",
          "name": "seller",
          "type": "address"
        },
        {
          "indexed": false,
          "internalType": "uint256",
          "name": "fassetid",
          "type": "uint256"
        },
        {
          "indexed": false,
          "internalType": "uint256",
          "name": "tokenid",
          "type": "uint256"
        },
        {
          "indexed": false,
          "internalType": "address",
          "name": "nft",
          "type": "address"
        }
      ],
      "name": "buyasset",
      "type": "event"
    },
    {
      "inputs": [
        {
          "internalType": "address",
          "name": "",
          "type": "address"
        }
      ],
      "name": "BSdetails",
      "outputs": [
        {
          "internalType": "address",
          "name": "buyer",
          "type": "address"
        },
        {
          "internalType": "bytes",
          "name": "location",
          "type": "bytes"
        },
        {
          "internalType": "bytes",
          "name": "contact",
          "type": "bytes"
        }
      ],
      "stateMutability": "view",
      "type": "function"
    },
    {
      "inputs": [
        {
          "internalType": "uint256",
          "name": "Assetid",
          "type": "uint256"
        },
        {
          "internalType": "uint256",
          "name": "fractionassetid",
          "type": "uint256"
        },
        {
          "internalType": "contract IERC721",
          "name": "_nft",
          "type": "address"
        }
      ],
      "name": "BuyAsset",
      "outputs": [],
      "stateMutability": "nonpayable",
      "type": "function"
    },
    {
      "inputs": [
        {
          "internalType": "uint256",
          "name": "",
          "type": "uint256"
        },
        {
          "internalType": "uint256",
          "name": "",
          "type": "uint256"
        }
      ],
      "name": "FractionAssetdetails",
      "outputs": [
        {
          "internalType": "string",
          "name": "fassetimage",
          "type": "string"
        },
        {
          "internalType": "string",
          "name": "imagename",
          "type": "string"
        },
        {
          "internalType": "contract IERC721",
          "name": "nft",
          "type": "address"
        },
        {
          "internalType": "uint256",
          "name": "tokenId",
          "type": "uint256"
        },
        {
          "internalType": "uint256",
          "name": "assetPrice",
          "type": "uint256"
        },
        {
          "internalType": "bytes",
          "name": "size",
          "type": "bytes"
        },
        {
          "internalType": "uint256",
          "name": "rentPrice",
          "type": "uint256"
        },
        {
          "internalType": "uint256",
          "name": "fid",
          "type": "uint256"
        }
      ],
      "stateMutability": "view",
      "type": "function"
    },
    {
      "inputs": [
        {
          "internalType": "uint256",
          "name": "",
          "type": "uint256"
        },
        {
          "internalType": "uint256",
          "name": "",
          "type": "uint256"
        }
      ],
      "name": "Fractionassetowner",
      "outputs": [
        {
          "internalType": "address",
          "name": "",
          "type": "address"
        }
      ],
      "stateMutability": "view",
      "type": "function"
    },
    {
      "inputs": [
        {
          "internalType": "uint256",
          "name": "",
          "type": "uint256"
        },
        {
          "internalType": "uint256",
          "name": "",
          "type": "uint256"
        }
      ],
      "name": "Tokenizeasset",
      "outputs": [
        {
          "internalType": "uint256",
          "name": "",
          "type": "uint256"
        }
      ],
      "stateMutability": "view",
      "type": "function"
    },
    {
      "inputs": [
        {
          "internalType": "string",
          "name": "_fassetimage",
          "type": "string"
        },
        {
          "internalType": "string",
          "name": "_imagename",
          "type": "string"
        },
        {
          "internalType": "contract IERC721",
          "name": "_nft",
          "type": "address"
        },
        {
          "internalType": "uint256",
          "name": "_tokenId",
          "type": "uint256"
        },
        {
          "internalType": "bytes",
          "name": "_assetlocation",
          "type": "bytes"
        },
        {
          "internalType": "bytes",
          "name": "_assetcontact",
          "type": "bytes"
        },
        {
          "internalType": "uint256",
          "name": "fassetprice",
          "type": "uint256"
        },
        {
          "internalType": "bytes",
          "name": "fassetsize",
          "type": "bytes"
        },
        {
          "internalType": "uint256",
          "name": "fassetrentcost",
          "type": "uint256"
        }
      ],
      "name": "addAsset",
      "outputs": [],
      "stateMutability": "nonpayable",
      "type": "function"
    },
    {
      "inputs": [
        {
          "internalType": "bytes",
          "name": "_location",
          "type": "bytes"
        },
        {
          "internalType": "bytes",
          "name": "_contact",
          "type": "bytes"
        }
      ],
      "name": "addbuyerseller",
      "outputs": [],
      "stateMutability": "nonpayable",
      "type": "function"
    },
    {
      "inputs": [
        {
          "internalType": "uint256",
          "name": "Assetid",
          "type": "uint256"
        },
        {
          "internalType": "uint256",
          "name": "fractionassetid",
          "type": "uint256"
        }
      ],
      "name": "addbuyfasset",
      "outputs": [],
      "stateMutability": "nonpayable",
      "type": "function"
    },
    {
      "inputs": [
        {
          "internalType": "string",
          "name": "_fassetimage",
          "type": "string"
        },
        {
          "internalType": "string",
          "name": "_imagename",
          "type": "string"
        },
        {
          "internalType": "contract IERC721",
          "name": "_nft",
          "type": "address"
        },
        {
          "internalType": "uint256",
          "name": "price",
          "type": "uint256"
        },
        {
          "internalType": "uint256",
          "name": "id",
          "type": "uint256"
        },
        {
          "internalType": "uint256",
          "name": "rentprice",
          "type": "uint256"
        },
        {
          "internalType": "bytes",
          "name": "size",
          "type": "bytes"
        },
        {
          "internalType": "uint256",
          "name": "_tokenId",
          "type": "uint256"
        }
      ],
      "name": "addfractionasset",
      "outputs": [],
      "stateMutability": "nonpayable",
      "type": "function"
    },
    {
      "inputs": [
        {
          "internalType": "uint256",
          "name": "",
          "type": "uint256"
        }
      ],
      "name": "assetDetails",
      "outputs": [
        {
          "internalType": "contract IERC721",
          "name": "nft",
          "type": "address"
        },
        {
          "internalType": "bytes",
          "name": "location",
          "type": "bytes"
        },
        {
          "internalType": "uint256",
          "name": "id",
          "type": "uint256"
        },
        {
          "internalType": "bytes",
          "name": "contact",
          "type": "bytes"
        }
      ],
      "stateMutability": "view",
      "type": "function"
    },
    {
      "inputs": [],
      "name": "assetid",
      "outputs": [
        {
          "internalType": "uint256",
          "name": "",
          "type": "uint256"
        }
      ],
      "stateMutability": "view",
      "type": "function"
    },
    {
      "inputs": [],
      "name": "duration",
      "outputs": [
        {
          "internalType": "uint256",
          "name": "",
          "type": "uint256"
        }
      ],
      "stateMutability": "view",
      "type": "function"
    },
    {
      "inputs": [
        {
          "internalType": "address",
          "name": "",
          "type": "address"
        }
      ],
      "name": "exist",
      "outputs": [
        {
          "internalType": "bool",
          "name": "",
          "type": "bool"
        }
      ],
      "stateMutability": "view",
      "type": "function"
    },
    {
      "inputs": [
        {
          "internalType": "uint256",
          "name": "Assetid",
          "type": "uint256"
        },
        {
          "internalType": "uint256",
          "name": "fractionassetid",
          "type": "uint256"
        }
      ],
      "name": "getSellonof",
      "outputs": [
        {
          "internalType": "bool",
          "name": "",
          "type": "bool"
        }
      ],
      "stateMutability": "view",
      "type": "function"
    },
    {
      "inputs": [
        {
          "internalType": "uint256",
          "name": "Assetid",
          "type": "uint256"
        },
        {
          "internalType": "uint256",
          "name": "fractionassetid",
          "type": "uint256"
        }
      ],
      "name": "getfractionassetdetails",
      "outputs": [
        {
          "components": [
            {
              "internalType": "string",
              "name": "fassetimage",
              "type": "string"
            },
            {
              "internalType": "string",
              "name": "imagename",
              "type": "string"
            },
            {
              "internalType": "contract IERC721",
              "name": "nft",
              "type": "address"
            },
            {
              "internalType": "uint256",
              "name": "tokenId",
              "type": "uint256"
            },
            {
              "internalType": "uint256",
              "name": "assetPrice",
              "type": "uint256"
            },
            {
              "internalType": "bytes",
              "name": "size",
              "type": "bytes"
            },
            {
              "internalType": "uint256",
              "name": "rentPrice",
              "type": "uint256"
            },
            {
              "internalType": "uint256",
              "name": "fid",
              "type": "uint256"
            }
          ],
          "internalType": "struct tokenizeRealestate.FractionAsset",
          "name": "",
          "type": "tuple"
        }
      ],
      "stateMutability": "view",
      "type": "function"
    },
    {
      "inputs": [
        {
          "internalType": "uint256",
          "name": "Assetid",
          "type": "uint256"
        },
        {
          "internalType": "uint256",
          "name": "fractionassetid",
          "type": "uint256"
        }
      ],
      "name": "getfractionassetowner",
      "outputs": [
        {
          "internalType": "address",
          "name": "",
          "type": "address"
        }
      ],
      "stateMutability": "view",
      "type": "function"
    },
    {
      "inputs": [],
      "name": "getid",
      "outputs": [
        {
          "internalType": "uint256",
          "name": "",
          "type": "uint256"
        }
      ],
      "stateMutability": "view",
      "type": "function"
    },
    {
      "inputs": [
        {
          "internalType": "uint256",
          "name": "Assetid",
          "type": "uint256"
        },
        {
          "internalType": "uint256",
          "name": "fractionassetid",
          "type": "uint256"
        }
      ],
      "name": "getsubscription",
      "outputs": [
        {
          "components": [
            {
              "internalType": "address",
              "name": "subscriber",
              "type": "address"
            },
            {
              "internalType": "uint256",
              "name": "start",
              "type": "uint256"
            },
            {
              "internalType": "uint256",
              "name": "end",
              "type": "uint256"
            }
          ],
          "internalType": "struct tokenizeRealestate.subscription",
          "name": "",
          "type": "tuple"
        }
      ],
      "stateMutability": "view",
      "type": "function"
    },
    {
      "inputs": [
        {
          "internalType": "uint256",
          "name": "Assetid",
          "type": "uint256"
        }
      ],
      "name": "gettokenizeasset",
      "outputs": [
        {
          "internalType": "uint256[]",
          "name": "",
          "type": "uint256[]"
        }
      ],
      "stateMutability": "view",
      "type": "function"
    },
    {
      "inputs": [
        {
          "internalType": "uint256",
          "name": "Assetid",
          "type": "uint256"
        },
        {
          "internalType": "uint256",
          "name": "fractionassetid",
          "type": "uint256"
        }
      ],
      "name": "selloff",
      "outputs": [],
      "stateMutability": "nonpayable",
      "type": "function"
    },
    {
      "inputs": [
        {
          "internalType": "uint256",
          "name": "Assetid",
          "type": "uint256"
        },
        {
          "internalType": "uint256",
          "name": "_fractionassetid",
          "type": "uint256"
        }
      ],
      "name": "sellon",
      "outputs": [],
      "stateMutability": "nonpayable",
      "type": "function"
    },
    {
      "inputs": [
        {
          "internalType": "uint256",
          "name": "Assetid",
          "type": "uint256"
        },
        {
          "internalType": "uint256",
          "name": "fractionassetid",
          "type": "uint256"
        }
      ],
      "name": "subscribe",
      "outputs": [],
      "stateMutability": "nonpayable",
      "type": "function"
    },
    {
      "inputs": [
        {
          "internalType": "uint256",
          "name": "",
          "type": "uint256"
        },
        {
          "internalType": "uint256",
          "name": "",
          "type": "uint256"
        }
      ],
      "name": "subscriptions",
      "outputs": [
        {
          "internalType": "address",
          "name": "subscriber",
          "type": "address"
        },
        {
          "internalType": "uint256",
          "name": "start",
          "type": "uint256"
        },
        {
          "internalType": "uint256",
          "name": "end",
          "type": "uint256"
        }
      ],
      "stateMutability": "view",
      "type": "function"
    },
    {
      "inputs": [],
      "name": "token",
      "outputs": [
        {
          "internalType": "contract IERC20",
          "name": "",
          "type": "address"
        }
      ],
      "stateMutability": "view",
      "type": "function"
    }
  ],
  "bytecode": "0x60a06040523480156200001157600080fd5b5060405162004449380380620044498339818101604052810190620000379190620000e4565b60016000819055508073ffffffffffffffffffffffffffffffffffffffff1660808173ffffffffffffffffffffffffffffffffffffffff16815250505062000116565b600080fd5b600073ffffffffffffffffffffffffffffffffffffffff82169050919050565b6000620000ac826200007f565b9050919050565b620000be816200009f565b8114620000ca57600080fd5b50565b600081519050620000de81620000b3565b92915050565b600060208284031215620000fd57620000fc6200007a565b5b60006200010d84828501620000cd565b91505092915050565b6080516143096200014060003960008181610896015281816112910152612e1701526143096000f3fe608060405234801561001057600080fd5b50600436106101585760003560e01c806390ab6adb116100c3578063cd8d05151161007c578063cd8d051514610414578063f365caef14610430578063f513f38e14610460578063f676a3441461047e578063faef14c0146104b5578063fc0c546a146104e557610158565b806390ab6adb1461034157806397e729611461035d578063ab7779361461038d578063c3967528146103a9578063c3e0350f146103dc578063c7502f7c146103f857610158565b8063478429b111610115578063478429b11461024557806349143619146102755780634dfefc4b146102a7578063626e5b10146102d757806380472cd5146102f5578063843708131461032557610158565b80630fb5a6b41461015d578063104972311461017b57806312aec3771461019757806314c4adaf146101c7578063365cfcbf146101e35780634390971314610215575b600080fd5b610165610503565b604051610172919061300d565b60405180910390f35b610195600480360381019061019091906130d8565b61050a565b005b6101b160048036038101906101ac919061312b565b610aac565b6040516101be919061317a565b60405180910390f35b6101e160048036038101906101dc919061312b565b610aee565b005b6101fd60048036038101906101f8919061312b565b610c59565b60405161020c93929190613195565b60405180910390f35b61022f600480360381019061022a919061312b565b610cb0565b60405161023c919061300d565b60405180910390f35b61025f600480360381019061025a919061312b565b610ce1565b60405161026c919061317a565b60405180910390f35b61028f600480360381019061028a91906131f8565b610d30565b60405161029e939291906132be565b60405180910390f35b6102c160048036038101906102bc91906131f8565b610e8a565b6040516102ce919061331e565b60405180910390f35b6102df610eaa565b6040516102ec919061300d565b60405180910390f35b61030f600480360381019061030a919061312b565b610eb0565b60405161031c919061331e565b60405180910390f35b61033f600480360381019061033a919061312b565b610eec565b005b61035b6004803603810190610356919061312b565b6113e6565b005b6103776004803603810190610372919061312b565b611551565b6040516103849190613504565b60405180910390f35b6103a760048036038101906103a291906136fc565b6117c5565b005b6103c360048036038101906103be9190613806565b611d4c565b6040516103d39493929190613842565b60405180910390f35b6103f660048036038101906103f1919061312b565b611eac565b005b610412600480360381019061040d9190613895565b612335565b005b61042e600480360381019061042991906139eb565b6128b2565b005b61044a6004803603810190610445919061312b565b612aea565b6040516104579190613ab4565b60405180910390f35b610468612b93565b604051610475919061300d565b60405180910390f35b6104986004803603810190610493919061312b565b612b9d565b6040516104ac989796959493929190613b19565b60405180910390f35b6104cf60048036038101906104ca9190613806565b612daa565b6040516104dc9190613c5b565b60405180910390f35b6104ed612e15565b6040516104fa9190613c9e565b60405180910390f35b62278d0081565b60026000540361054f576040517f08c379a000000000000000000000000000000000000000000000000000000000815260040161054690613d05565b60405180910390fd5b600260008190555060011515600860006001548152602001908152602001600020600084815260200190815260200160002060009054906101000a900460ff161515146105d1576040517f08c379a00000000000000000000000000000000000000000000000000000000081526004016105c890613d71565b60405180910390fd5b600060056000858152602001908152602001600020600084815260200190815260200160002060009054906101000a900473ffffffffffffffffffffffffffffffffffffffff16905060006006600086815260200190815260200160002060008581526020019081526020016000206040518061010001604052908160008201805461065c90613dc0565b80601f016020809104026020016040519081016040528092919081815260200182805461068890613dc0565b80156106d55780601f106106aa576101008083540402835291602001916106d5565b820191906000526020600020905b8154815290600101906020018083116106b857829003601f168201915b505050505081526020016001820180546106ee90613dc0565b80601f016020809104026020016040519081016040528092919081815260200182805461071a90613dc0565b80156107675780601f1061073c57610100808354040283529160200191610767565b820191906000526020600020905b81548152906001019060200180831161074a57829003601f168201915b505050505081526020016002820160009054906101000a900473ffffffffffffffffffffffffffffffffffffffff1673ffffffffffffffffffffffffffffffffffffffff1673ffffffffffffffffffffffffffffffffffffffff16815260200160038201548152602001600482015481526020016005820180546107ea90613dc0565b80601f016020809104026020016040519081016040528092919081815260200182805461081690613dc0565b80156108635780601f1061083857610100808354040283529160200191610863565b820191906000526020600020905b81548152906001019060200180831161084657829003601f168201915b505050505081526020016006820154815260200160078201548152505090506000816080015190506000826060015190507f000000000000000000000000000000000000000000000000000000000000000073ffffffffffffffffffffffffffffffffffffffff166323b872dd3386856040518463ffffffff1660e01b81526004016108f193929190613df1565b6020604051808303816000875af1158015610910573d6000803e3d6000fd5b505050506040513d601f19601f820116820180604052508101906109349190613e54565b508473ffffffffffffffffffffffffffffffffffffffff166323b872dd3033846040518463ffffffff1660e01b815260040161097293929190613df1565b600060405180830381600087803b15801561098c57600080fd5b505af11580156109a0573d6000803e3d6000fd5b505050503360056000898152602001908152602001600020600088815260200190815260200160002060006101000a81548173ffffffffffffffffffffffffffffffffffffffff021916908373ffffffffffffffffffffffffffffffffffffffff160217905550600060086000898152602001908152602001600020600088815260200190815260200160002060006101000a81548160ff0219169083151502179055503373ffffffffffffffffffffffffffffffffffffffff166001547f53db5edbf93025341a2df609506aa8235c1396f6bb3bac0209b72d5dedc7b5f08689858a604051610a939493929190613e81565b60405180910390a3505050506001600081905550505050565b60056020528160005260406000206020528060005260406000206000915091509054906101000a900473ffffffffffffffffffffffffffffffffffffffff1681565b3373ffffffffffffffffffffffffffffffffffffffff1660056000848152602001908152602001600020600083815260200190815260200160002060009054906101000a900473ffffffffffffffffffffffffffffffffffffffff1673ffffffffffffffffffffffffffffffffffffffff1614610ba0576040517f08c379a0000000000000000000000000000000000000000000000000000000008152600401610b9790613f12565b60405180910390fd5b6000151560086000848152602001908152602001600020600083815260200190815260200160002060009054906101000a900460ff16151514610c18576040517f08c379a0000000000000000000000000000000000000000000000000000000008152600401610c0f90613f7e565b60405180910390fd5b600160086000848152602001908152602001600020600083815260200190815260200160002060006101000a81548160ff0219169083151502179055505050565b6009602052816000526040600020602052806000526040600020600091509150508060000160009054906101000a900473ffffffffffffffffffffffffffffffffffffffff16908060010154908060020154905083565b60076020528160005260406000208181548110610ccc57600080fd5b90600052602060002001600091509150505481565b600060056000848152602001908152602001600020600083815260200190815260200160002060009054906101000a900473ffffffffffffffffffffffffffffffffffffffff16905092915050565b60036020528060005260406000206000915090508060000160009054906101000a900473ffffffffffffffffffffffffffffffffffffffff1690806001018054610d7990613dc0565b80601f0160208091040260200160405190810160405280929190818152602001828054610da590613dc0565b8015610df25780601f10610dc757610100808354040283529160200191610df2565b820191906000526020600020905b815481529060010190602001808311610dd557829003601f168201915b505050505090806002018054610e0790613dc0565b80601f0160208091040260200160405190810160405280929190818152602001828054610e3390613dc0565b8015610e805780601f10610e5557610100808354040283529160200191610e80565b820191906000526020600020905b815481529060010190602001808311610e6357829003601f168201915b5050505050905083565b60026020528060005260406000206000915054906101000a900460ff1681565b60015481565b600060086000848152602001908152602001600020600083815260200190815260200160002060009054906101000a900460ff16905092915050565b60006009600084815260200190815260200160002060008381526020019081526020016000206040518060600160405290816000820160009054906101000a900473ffffffffffffffffffffffffffffffffffffffff1673ffffffffffffffffffffffffffffffffffffffff1673ffffffffffffffffffffffffffffffffffffffff16815260200160018201548152602001600282015481525050905060008160400151905042811115610fd5576040517f08c379a0000000000000000000000000000000000000000000000000000000008152600401610fcc90613fea565b60405180910390fd5b60006006600086815260200190815260200160002060008581526020019081526020016000206040518061010001604052908160008201805461101790613dc0565b80601f016020809104026020016040519081016040528092919081815260200182805461104390613dc0565b80156110905780601f1061106557610100808354040283529160200191611090565b820191906000526020600020905b81548152906001019060200180831161107357829003601f168201915b505050505081526020016001820180546110a990613dc0565b80601f01602080910402602001604051908101604052809291908181526020018280546110d590613dc0565b80156111225780601f106110f757610100808354040283529160200191611122565b820191906000526020600020905b81548152906001019060200180831161110557829003601f168201915b505050505081526020016002820160009054906101000a900473ffffffffffffffffffffffffffffffffffffffff1673ffffffffffffffffffffffffffffffffffffffff1673ffffffffffffffffffffffffffffffffffffffff16815260200160038201548152602001600482015481526020016005820180546111a590613dc0565b80601f01602080910402602001604051908101604052809291908181526020018280546111d190613dc0565b801561121e5780601f106111f35761010080835404028352916020019161121e565b820191906000526020600020905b81548152906001019060200180831161120157829003601f168201915b5050505050815260200160068201548152602001600782015481525050905060008160c001519050600060056000888152602001908152602001600020600087815260200190815260200160002060009054906101000a900473ffffffffffffffffffffffffffffffffffffffff1690507f000000000000000000000000000000000000000000000000000000000000000073ffffffffffffffffffffffffffffffffffffffff166323b872dd3383856040518463ffffffff1660e01b81526004016112ec93929190613df1565b6020604051808303816000875af115801561130b573d6000803e3d6000fd5b505050506040513d601f19601f8201168201806040525081019061132f9190613e54565b5033856000019073ffffffffffffffffffffffffffffffffffffffff16908173ffffffffffffffffffffffffffffffffffffffff1681525050428560200181815250504262278d006113819190614039565b8560400181815250503373ffffffffffffffffffffffffffffffffffffffff166001547f4da0d42a121e84afe44db6e72bd62c46efbba73b5edfdb406eee5996d6d0e76088856040516113d592919061408f565b60405180910390a350505050505050565b3373ffffffffffffffffffffffffffffffffffffffff1660056000848152602001908152602001600020600083815260200190815260200160002060009054906101000a900473ffffffffffffffffffffffffffffffffffffffff1673ffffffffffffffffffffffffffffffffffffffff1614611498576040517f08c379a000000000000000000000000000000000000000000000000000000000815260040161148f90613f12565b60405180910390fd5b6001151560086000848152602001908152602001600020600083815260200190815260200160002060009054906101000a900460ff16151514611510576040517f08c379a000000000000000000000000000000000000000000000000000000000815260040161150790614104565b60405180910390fd5b600060086000848152602001908152602001600020600083815260200190815260200160002060006101000a81548160ff0219169083151502179055505050565b611559612e39565b6006600084815260200190815260200160002060008381526020019081526020016000206040518061010001604052908160008201805461159990613dc0565b80601f01602080910402602001604051908101604052809291908181526020018280546115c590613dc0565b80156116125780601f106115e757610100808354040283529160200191611612565b820191906000526020600020905b8154815290600101906020018083116115f557829003601f168201915b5050505050815260200160018201805461162b90613dc0565b80601f016020809104026020016040519081016040528092919081815260200182805461165790613dc0565b80156116a45780601f10611679576101008083540402835291602001916116a4565b820191906000526020600020905b81548152906001019060200180831161168757829003601f168201915b505050505081526020016002820160009054906101000a900473ffffffffffffffffffffffffffffffffffffffff1673ffffffffffffffffffffffffffffffffffffffff1673ffffffffffffffffffffffffffffffffffffffff168152602001600382015481526020016004820154815260200160058201805461172790613dc0565b80601f016020809104026020016040519081016040528092919081815260200182805461175390613dc0565b80156117a05780601f10611775576101008083540402835291602001916117a0565b820191906000526020600020905b81548152906001019060200180831161178357829003601f168201915b5050505050815260200160068201548152602001600782015481525050905092915050565b3373ffffffffffffffffffffffffffffffffffffffff166005600086815260200190815260200160002060006001815260200190815260200160002060009054906101000a900473ffffffffffffffffffffffffffffffffffffffff1673ffffffffffffffffffffffffffffffffffffffff1614611878576040517f08c379a000000000000000000000000000000000000000000000000000000000815260040161186f90613f12565b60405180910390fd5b3073ffffffffffffffffffffffffffffffffffffffff168673ffffffffffffffffffffffffffffffffffffffff16636352211e836040518263ffffffff1660e01b81526004016118c8919061300d565b602060405180830381865afa1580156118e5573d6000803e3d6000fd5b505050506040513d601f19601f820116820180604052508101906119099190614139565b73ffffffffffffffffffffffffffffffffffffffff160361195f576040517f08c379a0000000000000000000000000000000000000000000000000000000008152600401611956906141b2565b60405180910390fd5b8573ffffffffffffffffffffffffffffffffffffffff166323b872dd3330846040518463ffffffff1660e01b815260040161199c93929190613df1565b600060405180830381600087803b1580156119b657600080fd5b505af11580156119ca573d6000803e3d6000fd5b505050506000600760008681526020019081526020016000208054905090506001816119f69190614039565b9050600760008681526020019081526020016000208190806001815401808255809150506001900390600052602060002001600090919091909150553360056000878152602001908152602001600020600083815260200190815260200160002060006101000a81548173ffffffffffffffffffffffffffffffffffffffff021916908373ffffffffffffffffffffffffffffffffffffffff16021790555060006040518061010001604052808b81526020018a81526020018973ffffffffffffffffffffffffffffffffffffffff168152602001848152602001888152602001858152602001868152602001838152509050806006600088815260200190815260200160002060008481526020019081526020016000206000820151816000019080519060200190611b2a929190612e94565b506020820151816001019080519060200190611b47929190612e94565b5060408201518160020160006101000a81548173ffffffffffffffffffffffffffffffffffffffff021916908373ffffffffffffffffffffffffffffffffffffffff160217905550606082015181600301556080820151816004015560a0820151816005019080519060200190611bbf929190612f1a565b5060c0820151816006015560e08201518160070155905050600060086000888152602001908152602001600020600084815260200190815260200160002060006101000a81548160ff021916908315150217905550611c1c612fa0565b6000816000019073ffffffffffffffffffffffffffffffffffffffff16908173ffffffffffffffffffffffffffffffffffffffff168152505042816020018181525050428160400181815250508060096000898152602001908152602001600020600085815260200190815260200160002060008201518160000160006101000a81548173ffffffffffffffffffffffffffffffffffffffff021916908373ffffffffffffffffffffffffffffffffffffffff16021790555060208201518160010155604082015181600201559050503373ffffffffffffffffffffffffffffffffffffffff166001547fc26301b8b37763283309e059164f95de19fc029559e352830f6cffbbad1038c7868c604051611d379291906141d2565b60405180910390a35050505050505050505050565b60046020528060005260406000206000915090508060000160009054906101000a900473ffffffffffffffffffffffffffffffffffffffff1690806001018054611d9590613dc0565b80601f0160208091040260200160405190810160405280929190818152602001828054611dc190613dc0565b8015611e0e5780601f10611de357610100808354040283529160200191611e0e565b820191906000526020600020905b815481529060010190602001808311611df157829003601f168201915b505050505090806002015490806003018054611e2990613dc0565b80601f0160208091040260200160405190810160405280929190818152602001828054611e5590613dc0565b8015611ea25780601f10611e7757610100808354040283529160200191611ea2565b820191906000526020600020905b815481529060010190602001808311611e8557829003601f168201915b5050505050905084565b3373ffffffffffffffffffffffffffffffffffffffff1660056000848152602001908152602001600020600083815260200190815260200160002060009054906101000a900473ffffffffffffffffffffffffffffffffffffffff1673ffffffffffffffffffffffffffffffffffffffff1614611f5e576040517f08c379a0000000000000000000000000000000000000000000000000000000008152600401611f5590613f12565b60405180910390fd5b600060066000848152602001908152602001600020600083815260200190815260200160002060405180610100016040529081600082018054611fa090613dc0565b80601f0160208091040260200160405190810160405280929190818152602001828054611fcc90613dc0565b80156120195780601f10611fee57610100808354040283529160200191612019565b820191906000526020600020905b815481529060010190602001808311611ffc57829003601f168201915b5050505050815260200160018201805461203290613dc0565b80601f016020809104026020016040519081016040528092919081815260200182805461205e90613dc0565b80156120ab5780601f10612080576101008083540402835291602001916120ab565b820191906000526020600020905b81548152906001019060200180831161208e57829003601f168201915b505050505081526020016002820160009054906101000a900473ffffffffffffffffffffffffffffffffffffffff1673ffffffffffffffffffffffffffffffffffffffff1673ffffffffffffffffffffffffffffffffffffffff168152602001600382015481526020016004820154815260200160058201805461212e90613dc0565b80601f016020809104026020016040519081016040528092919081815260200182805461215a90613dc0565b80156121a75780601f1061217c576101008083540402835291602001916121a7565b820191906000526020600020905b81548152906001019060200180831161218a57829003601f168201915b505050505081526020016006820154815260200160078201548152505090506000816040015190506000826060015190503073ffffffffffffffffffffffffffffffffffffffff168273ffffffffffffffffffffffffffffffffffffffff16636352211e836040518263ffffffff1660e01b8152600401612228919061300d565b602060405180830381865afa158015612245573d6000803e3d6000fd5b505050506040513d601f19601f820116820180604052508101906122699190614139565b73ffffffffffffffffffffffffffffffffffffffff16036122bf576040517f08c379a00000000000000000000000000000000000000000000000000000000081526004016122b6906141b2565b60405180910390fd5b8173ffffffffffffffffffffffffffffffffffffffff166323b872dd3330846040518463ffffffff1660e01b81526004016122fc93929190613df1565b600060405180830381600087803b15801561231657600080fd5b505af115801561232a573d6000803e3d6000fd5b505050505050505050565b60026000540361237a576040517f08c379a000000000000000000000000000000000000000000000000000000000815260040161237190613d05565b60405180910390fd5b600260008190555060011515600260003373ffffffffffffffffffffffffffffffffffffffff1673ffffffffffffffffffffffffffffffffffffffff16815260200190815260200160002060009054906101000a900460ff16151514612415576040517f08c379a000000000000000000000000000000000000000000000000000000000815260040161240c90614247565b60405180910390fd5b60018060008282546124279190614039565b925050819055508673ffffffffffffffffffffffffffffffffffffffff166323b872dd3330896040518463ffffffff1660e01b815260040161246b93929190613df1565b600060405180830381600087803b15801561248557600080fd5b505af1158015612499573d6000803e3d6000fd5b505050503360056000600154815260200190815260200160002060006001815260200190815260200160002060006101000a81548173ffffffffffffffffffffffffffffffffffffffff021916908373ffffffffffffffffffffffffffffffffffffffff16021790555060076000600154815260200190815260200160002060019080600181540180825580915050600190039060005260206000200160009091909190915055600060086000600154815260200190815260200160002060006001815260200190815260200160002060006101000a81548160ff021916908315150217905550600060405180608001604052808973ffffffffffffffffffffffffffffffffffffffff16815260200187815260200160015481526020018681525090508060046000600154815260200190815260200160002060008201518160000160006101000a81548173ffffffffffffffffffffffffffffffffffffffff021916908373ffffffffffffffffffffffffffffffffffffffff1602179055506020820151816001019080519060200190612636929190612f1a565b5060408201518160020155606082015181600301908051906020019061265d929190612f1a565b5090505060006040518061010001604052808c81526020018b81526020018a73ffffffffffffffffffffffffffffffffffffffff168152602001898152602001868152602001858152602001848152602001600181525090508060066000600154815260200190815260200160002060006001815260200190815260200160002060008201518160000190805190602001906126fa929190612e94565b506020820151816001019080519060200190612717929190612e94565b5060408201518160020160006101000a81548173ffffffffffffffffffffffffffffffffffffffff021916908373ffffffffffffffffffffffffffffffffffffffff160217905550606082015181600301556080820151816004015560a082015181600501908051906020019061278f929190612f1a565b5060c0820151816006015560e082015181600701559050506127af612fa0565b42816020018181525050428160400181815250508060096000600154815260200190815260200160002060006001815260200190815260200160002060008201518160000160006101000a81548173ffffffffffffffffffffffffffffffffffffffff021916908373ffffffffffffffffffffffffffffffffffffffff16021790555060208201518160010155604082015181600201559050503373ffffffffffffffffffffffffffffffffffffffff166001547fef5c022f380ee048e331dcfcd0d6abce4259d7367a7e15d6fd54787869122c0b8b8d6040516128949291906141d2565b60405180910390a35050506001600081905550505050505050505050565b6002600054036128f7576040517f08c379a00000000000000000000000000000000000000000000000000000000081526004016128ee90613d05565b60405180910390fd5b6002600081905550600260003373ffffffffffffffffffffffffffffffffffffffff1673ffffffffffffffffffffffffffffffffffffffff16815260200190815260200160002060009054906101000a900460ff161561298c576040517f08c379a0000000000000000000000000000000000000000000000000000000008152600401612983906142b3565b60405180910390fd5b600060405180606001604052803373ffffffffffffffffffffffffffffffffffffffff16815260200184815260200183815250905080600360003373ffffffffffffffffffffffffffffffffffffffff1673ffffffffffffffffffffffffffffffffffffffff16815260200190815260200160002060008201518160000160006101000a81548173ffffffffffffffffffffffffffffffffffffffff021916908373ffffffffffffffffffffffffffffffffffffffff1602179055506020820151816001019080519060200190612a64929190612f1a565b506040820151816002019080519060200190612a81929190612f1a565b509050506001600260003373ffffffffffffffffffffffffffffffffffffffff1673ffffffffffffffffffffffffffffffffffffffff16815260200190815260200160002060006101000a81548160ff0219169083151502179055505060016000819055505050565b612af2612fa0565b6009600084815260200190815260200160002060008381526020019081526020016000206040518060600160405290816000820160009054906101000a900473ffffffffffffffffffffffffffffffffffffffff1673ffffffffffffffffffffffffffffffffffffffff1673ffffffffffffffffffffffffffffffffffffffff16815260200160018201548152602001600282015481525050905092915050565b6000600154905090565b600660205281600052604060002060205280600052604060002060009150915050806000018054612bcd90613dc0565b80601f0160208091040260200160405190810160405280929190818152602001828054612bf990613dc0565b8015612c465780601f10612c1b57610100808354040283529160200191612c46565b820191906000526020600020905b815481529060010190602001808311612c2957829003601f168201915b505050505090806001018054612c5b90613dc0565b80601f0160208091040260200160405190810160405280929190818152602001828054612c8790613dc0565b8015612cd45780601f10612ca957610100808354040283529160200191612cd4565b820191906000526020600020905b815481529060010190602001808311612cb757829003601f168201915b5050505050908060020160009054906101000a900473ffffffffffffffffffffffffffffffffffffffff1690806003015490806004015490806005018054612d1b90613dc0565b80601f0160208091040260200160405190810160405280929190818152602001828054612d4790613dc0565b8015612d945780601f10612d6957610100808354040283529160200191612d94565b820191906000526020600020905b815481529060010190602001808311612d7757829003601f168201915b5050505050908060060154908060070154905088565b606060076000838152602001908152602001600020805480602002602001604051908101604052809291908181526020018280548015612e0957602002820191906000526020600020905b815481526020019060010190808311612df5575b50505050509050919050565b7f000000000000000000000000000000000000000000000000000000000000000081565b6040518061010001604052806060815260200160608152602001600073ffffffffffffffffffffffffffffffffffffffff16815260200160008152602001600081526020016060815260200160008152602001600081525090565b828054612ea090613dc0565b90600052602060002090601f016020900481019282612ec25760008555612f09565b82601f10612edb57805160ff1916838001178555612f09565b82800160010185558215612f09579182015b82811115612f08578251825591602001919060010190612eed565b5b509050612f169190612fd7565b5090565b828054612f2690613dc0565b90600052602060002090601f016020900481019282612f485760008555612f8f565b82601f10612f6157805160ff1916838001178555612f8f565b82800160010185558215612f8f579182015b82811115612f8e578251825591602001919060010190612f73565b5b509050612f9c9190612fd7565b5090565b6040518060600160405280600073ffffffffffffffffffffffffffffffffffffffff16815260200160008152602001600081525090565b5b80821115612ff0576000816000905550600101612fd8565b5090565b6000819050919050565b61300781612ff4565b82525050565b60006020820190506130226000830184612ffe565b92915050565b6000604051905090565b600080fd5b600080fd5b61304581612ff4565b811461305057600080fd5b50565b6000813590506130628161303c565b92915050565b600073ffffffffffffffffffffffffffffffffffffffff82169050919050565b600061309382613068565b9050919050565b60006130a582613088565b9050919050565b6130b58161309a565b81146130c057600080fd5b50565b6000813590506130d2816130ac565b92915050565b6000806000606084860312156130f1576130f0613032565b5b60006130ff86828701613053565b935050602061311086828701613053565b9250506040613121868287016130c3565b9150509250925092565b6000806040838503121561314257613141613032565b5b600061315085828601613053565b925050602061316185828601613053565b9150509250929050565b61317481613088565b82525050565b600060208201905061318f600083018461316b565b92915050565b60006060820190506131aa600083018661316b565b6131b76020830185612ffe565b6131c46040830184612ffe565b949350505050565b6131d581613088565b81146131e057600080fd5b50565b6000813590506131f2816131cc565b92915050565b60006020828403121561320e5761320d613032565b5b600061321c848285016131e3565b91505092915050565b600081519050919050565b600082825260208201905092915050565b60005b8381101561325f578082015181840152602081019050613244565b8381111561326e576000848401525b50505050565b6000601f19601f8301169050919050565b600061329082613225565b61329a8185613230565b93506132aa818560208601613241565b6132b381613274565b840191505092915050565b60006060820190506132d3600083018661316b565b81810360208301526132e58185613285565b905081810360408301526132f98184613285565b9050949350505050565b60008115159050919050565b61331881613303565b82525050565b6000602082019050613333600083018461330f565b92915050565b600081519050919050565b600082825260208201905092915050565b600061336082613339565b61336a8185613344565b935061337a818560208601613241565b61338381613274565b840191505092915050565b6000819050919050565b60006133b36133ae6133a984613068565b61338e565b613068565b9050919050565b60006133c582613398565b9050919050565b60006133d7826133ba565b9050919050565b6133e7816133cc565b82525050565b6133f681612ff4565b82525050565b600082825260208201905092915050565b600061341882613225565b61342281856133fc565b9350613432818560208601613241565b61343b81613274565b840191505092915050565b60006101008301600083015184820360008601526134648282613355565b9150506020830151848203602086015261347e8282613355565b915050604083015161349360408601826133de565b5060608301516134a660608601826133ed565b5060808301516134b960808601826133ed565b5060a083015184820360a08601526134d1828261340d565b91505060c08301516134e660c08601826133ed565b5060e08301516134f960e08601826133ed565b508091505092915050565b6000602082019050818103600083015261351e8184613446565b905092915050565b600080fd5b600080fd5b7f4e487b7100000000000000000000000000000000000000000000000000000000600052604160045260246000fd5b61356882613274565b810181811067ffffffffffffffff8211171561358757613586613530565b5b80604052505050565b600061359a613028565b90506135a6828261355f565b919050565b600067ffffffffffffffff8211156135c6576135c5613530565b5b6135cf82613274565b9050602081019050919050565b82818337600083830152505050565b60006135fe6135f9846135ab565b613590565b90508281526020810184848401111561361a5761361961352b565b5b6136258482856135dc565b509392505050565b600082601f83011261364257613641613526565b5b81356136528482602086016135eb565b91505092915050565b600067ffffffffffffffff82111561367657613675613530565b5b61367f82613274565b9050602081019050919050565b600061369f61369a8461365b565b613590565b9050828152602081018484840111156136bb576136ba61352b565b5b6136c68482856135dc565b509392505050565b600082601f8301126136e3576136e2613526565b5b81356136f384826020860161368c565b91505092915050565b600080600080600080600080610100898b03121561371d5761371c613032565b5b600089013567ffffffffffffffff81111561373b5761373a613037565b5b6137478b828c0161362d565b985050602089013567ffffffffffffffff81111561376857613767613037565b5b6137748b828c0161362d565b97505060406137858b828c016130c3565b96505060606137968b828c01613053565b95505060806137a78b828c01613053565b94505060a06137b88b828c01613053565b93505060c089013567ffffffffffffffff8111156137d9576137d8613037565b5b6137e58b828c016136ce565b92505060e06137f68b828c01613053565b9150509295985092959890939650565b60006020828403121561381c5761381b613032565b5b600061382a84828501613053565b91505092915050565b61383c816133cc565b82525050565b60006080820190506138576000830187613833565b81810360208301526138698186613285565b90506138786040830185612ffe565b818103606083015261388a8184613285565b905095945050505050565b60008060008060008060008060006101208a8c0312156138b8576138b7613032565b5b60008a013567ffffffffffffffff8111156138d6576138d5613037565b5b6138e28c828d0161362d565b99505060208a013567ffffffffffffffff81111561390357613902613037565b5b61390f8c828d0161362d565b98505060406139208c828d016130c3565b97505060606139318c828d01613053565b96505060808a013567ffffffffffffffff81111561395257613951613037565b5b61395e8c828d016136ce565b95505060a08a013567ffffffffffffffff81111561397f5761397e613037565b5b61398b8c828d016136ce565b94505060c061399c8c828d01613053565b93505060e08a013567ffffffffffffffff8111156139bd576139bc613037565b5b6139c98c828d016136ce565b9250506101006139db8c828d01613053565b9150509295985092959850929598565b60008060408385031215613a0257613a01613032565b5b600083013567ffffffffffffffff811115613a2057613a1f613037565b5b613a2c858286016136ce565b925050602083013567ffffffffffffffff811115613a4d57613a4c613037565b5b613a59858286016136ce565b9150509250929050565b613a6c81613088565b82525050565b606082016000820151613a886000850182613a63565b506020820151613a9b60208501826133ed565b506040820151613aae60408501826133ed565b50505050565b6000606082019050613ac96000830184613a72565b92915050565b600082825260208201905092915050565b6000613aeb82613339565b613af58185613acf565b9350613b05818560208601613241565b613b0e81613274565b840191505092915050565b6000610100820190508181036000830152613b34818b613ae0565b90508181036020830152613b48818a613ae0565b9050613b576040830189613833565b613b646060830188612ffe565b613b716080830187612ffe565b81810360a0830152613b838186613285565b9050613b9260c0830185612ffe565b613b9f60e0830184612ffe565b9998505050505050505050565b600081519050919050565b600082825260208201905092915050565b6000819050602082019050919050565b6000613be483836133ed565b60208301905092915050565b6000602082019050919050565b6000613c0882613bac565b613c128185613bb7565b9350613c1d83613bc8565b8060005b83811015613c4e578151613c358882613bd8565b9750613c4083613bf0565b925050600181019050613c21565b5085935050505092915050565b60006020820190508181036000830152613c758184613bfd565b905092915050565b6000613c88826133ba565b9050919050565b613c9881613c7d565b82525050565b6000602082019050613cb36000830184613c8f565b92915050565b7f5265656e7472616e637947756172643a207265656e7472616e742063616c6c00600082015250565b6000613cef601f83613acf565b9150613cfa82613cb9565b602082019050919050565b60006020820190508181036000830152613d1e81613ce2565b9050919050565b7f73656c6c20206f66660000000000000000000000000000000000000000000000600082015250565b6000613d5b600983613acf565b9150613d6682613d25565b602082019050919050565b60006020820190508181036000830152613d8a81613d4e565b9050919050565b7f4e487b7100000000000000000000000000000000000000000000000000000000600052602260045260246000fd5b60006002820490506001821680613dd857607f821691505b602082108103613deb57613dea613d91565b5b50919050565b6000606082019050613e06600083018661316b565b613e13602083018561316b565b613e206040830184612ffe565b949350505050565b613e3181613303565b8114613e3c57600080fd5b50565b600081519050613e4e81613e28565b92915050565b600060208284031215613e6a57613e69613032565b5b6000613e7884828501613e3f565b91505092915050565b6000608082019050613e96600083018761316b565b613ea36020830186612ffe565b613eb06040830185612ffe565b613ebd606083018461316b565b95945050505050565b7f73656e646572206973206e6f74206f776e657200000000000000000000000000600082015250565b6000613efc601383613acf565b9150613f0782613ec6565b602082019050919050565b60006020820190508181036000830152613f2b81613eef565b9050919050565b7f73656c6c20616c7265616479206f6e0000000000000000000000000000000000600082015250565b6000613f68600f83613acf565b9150613f7382613f32565b602082019050919050565b60006020820190508181036000830152613f9781613f5b565b9050919050565b7f72656e7420697320676f696e67206f6e00000000000000000000000000000000600082015250565b6000613fd4601083613acf565b9150613fdf82613f9e565b602082019050919050565b6000602082019050818103600083015261400381613fc7565b9050919050565b7f4e487b7100000000000000000000000000000000000000000000000000000000600052601160045260246000fd5b600061404482612ff4565b915061404f83612ff4565b9250827fffffffffffffffffffffffffffffffffffffffffffffffffffffffffffffffff038211156140845761408361400a565b5b828201905092915050565b60006040820190506140a46000830185612ffe565b6140b16020830184612ffe565b9392505050565b7f73656c6c20616c7265616479206f666600000000000000000000000000000000600082015250565b60006140ee601083613acf565b91506140f9826140b8565b602082019050919050565b6000602082019050818103600083015261411d816140e1565b9050919050565b600081519050614133816131cc565b92915050565b60006020828403121561414f5761414e613032565b5b600061415d84828501614124565b91505092915050565b7f6e667420696420616c7265616479206578697374730000000000000000000000600082015250565b600061419c601583613acf565b91506141a782614166565b602082019050919050565b600060208201905081810360008301526141cb8161418f565b9050919050565b60006040820190506141e76000830185612ffe565b6141f4602083018461316b565b9392505050565b7f61646472206e6f74206578697374730000000000000000000000000000000000600082015250565b6000614231600f83613acf565b915061423c826141fb565b602082019050919050565b6000602082019050818103600083015261426081614224565b9050919050565b7f6164647220616c72656164792065786973740000000000000000000000000000600082015250565b600061429d601283613acf565b91506142a882614267565b602082019050919050565b600060208201905081810360008301526142cc81614290565b905091905056fea26469706673582212200e2a00f2439e9adb203aef4cd854fc0d5a2fde6cb4d94d036f8eeb8bebdb349564736f6c634300080d0033",
  "linkReferences": {},
  "deployedLinkReferences": {}
}